{
  "_format": "hh-sol-artifact-1",
  "contractName": "MyNFT",
  "sourceName": "contracts/MyNFT.sol",
  "abi": [
    {
      "inputs": [
        {
          "internalType": "string",
          "name": "_name",
          "type": "string"
        },
        {
          "internalType": "string",
          "name": "_symbol",
          "type": "string"
        },
        {
          "internalType": "string",
          "name": "_initBaseURI",
          "type": "string"
        },
        {
          "internalType": "string",
          "name": "_initNotRevealedUri",
          "type": "string"
        }
      ],
      "stateMutability": "nonpayable",
      "type": "constructor"
    },
    {
      "anonymous": false,
      "inputs": [
        {
          "indexed": true,
          "internalType": "address",
          "name": "owner",
          "type": "address"
        },
        {
          "indexed": true,
          "internalType": "address",
          "name": "approved",
          "type": "address"
        },
        {
          "indexed": true,
          "internalType": "uint256",
          "name": "tokenId",
          "type": "uint256"
        }
      ],
      "name": "Approval",
      "type": "event"
    },
    {
      "anonymous": false,
      "inputs": [
        {
          "indexed": true,
          "internalType": "address",
          "name": "owner",
          "type": "address"
        },
        {
          "indexed": true,
          "internalType": "address",
          "name": "operator",
          "type": "address"
        },
        {
          "indexed": false,
          "internalType": "bool",
          "name": "approved",
          "type": "bool"
        }
      ],
      "name": "ApprovalForAll",
      "type": "event"
    },
    {
      "anonymous": false,
      "inputs": [
        {
          "indexed": true,
          "internalType": "address",
          "name": "previousOwner",
          "type": "address"
        },
        {
          "indexed": true,
          "internalType": "address",
          "name": "newOwner",
          "type": "address"
        }
      ],
      "name": "OwnershipTransferred",
      "type": "event"
    },
    {
      "anonymous": false,
      "inputs": [
        {
          "indexed": true,
          "internalType": "address",
          "name": "from",
          "type": "address"
        },
        {
          "indexed": true,
          "internalType": "address",
          "name": "to",
          "type": "address"
        },
        {
          "indexed": true,
          "internalType": "uint256",
          "name": "tokenId",
          "type": "uint256"
        }
      ],
      "name": "Transfer",
      "type": "event"
    },
    {
      "inputs": [
        {
          "internalType": "address",
          "name": "",
          "type": "address"
        }
      ],
      "name": "addressMintedBalance",
      "outputs": [
        {
          "internalType": "uint256",
          "name": "",
          "type": "uint256"
        }
      ],
      "stateMutability": "view",
      "type": "function"
    },
    {
      "inputs": [
        {
          "internalType": "address",
          "name": "to",
          "type": "address"
        },
        {
          "internalType": "uint256",
          "name": "tokenId",
          "type": "uint256"
        }
      ],
      "name": "approve",
      "outputs": [],
      "stateMutability": "nonpayable",
      "type": "function"
    },
    {
      "inputs": [
        {
          "internalType": "address",
          "name": "owner",
          "type": "address"
        }
      ],
      "name": "balanceOf",
      "outputs": [
        {
          "internalType": "uint256",
          "name": "",
          "type": "uint256"
        }
      ],
      "stateMutability": "view",
      "type": "function"
    },
    {
      "inputs": [],
      "name": "baseExtension",
      "outputs": [
        {
          "internalType": "string",
          "name": "",
          "type": "string"
        }
      ],
      "stateMutability": "view",
      "type": "function"
    },
    {
      "inputs": [],
      "name": "baseURI",
      "outputs": [
        {
          "internalType": "string",
          "name": "",
          "type": "string"
        }
      ],
      "stateMutability": "view",
      "type": "function"
    },
    {
      "inputs": [
        {
          "internalType": "uint256",
          "name": "tokenId",
          "type": "uint256"
        }
      ],
      "name": "burn",
      "outputs": [],
      "stateMutability": "nonpayable",
      "type": "function"
    },
    {
      "inputs": [],
      "name": "cost",
      "outputs": [
        {
          "internalType": "uint256",
          "name": "",
          "type": "uint256"
        }
      ],
      "stateMutability": "view",
      "type": "function"
    },
    {
      "inputs": [
        {
          "internalType": "uint256",
          "name": "tokenId",
          "type": "uint256"
        }
      ],
      "name": "getApproved",
      "outputs": [
        {
          "internalType": "address",
          "name": "",
          "type": "address"
        }
      ],
      "stateMutability": "view",
      "type": "function"
    },
    {
      "inputs": [
        {
          "internalType": "address",
          "name": "owner",
          "type": "address"
        },
        {
          "internalType": "address",
          "name": "operator",
          "type": "address"
        }
      ],
      "name": "isApprovedForAll",
      "outputs": [
        {
          "internalType": "bool",
          "name": "",
          "type": "bool"
        }
      ],
      "stateMutability": "view",
      "type": "function"
    },
    {
      "inputs": [
        {
          "internalType": "address",
          "name": "_user",
          "type": "address"
        }
      ],
      "name": "isWhitelisted",
      "outputs": [
        {
          "internalType": "bool",
          "name": "",
          "type": "bool"
        }
      ],
      "stateMutability": "view",
      "type": "function"
    },
    {
      "inputs": [],
      "name": "maxMintAmount",
      "outputs": [
        {
          "internalType": "uint256",
          "name": "",
          "type": "uint256"
        }
      ],
      "stateMutability": "view",
      "type": "function"
    },
    {
      "inputs": [],
      "name": "maxSupply",
      "outputs": [
        {
          "internalType": "uint256",
          "name": "",
          "type": "uint256"
        }
      ],
      "stateMutability": "view",
      "type": "function"
    },
    {
      "inputs": [
        {
          "internalType": "uint256",
          "name": "_mintAmount",
          "type": "uint256"
        }
      ],
      "name": "mint",
      "outputs": [],
      "stateMutability": "payable",
      "type": "function"
    },
    {
      "inputs": [],
      "name": "name",
      "outputs": [
        {
          "internalType": "string",
          "name": "",
          "type": "string"
        }
      ],
      "stateMutability": "view",
      "type": "function"
    },
    {
      "inputs": [],
      "name": "nftPerAddressLimit",
      "outputs": [
        {
          "internalType": "uint256",
          "name": "",
          "type": "uint256"
        }
      ],
      "stateMutability": "view",
      "type": "function"
    },
    {
      "inputs": [],
      "name": "notRevealedUri",
      "outputs": [
        {
          "internalType": "string",
          "name": "",
          "type": "string"
        }
      ],
      "stateMutability": "view",
      "type": "function"
    },
    {
      "inputs": [],
      "name": "onlyWhitelisted",
      "outputs": [
        {
          "internalType": "bool",
          "name": "",
          "type": "bool"
        }
      ],
      "stateMutability": "view",
      "type": "function"
    },
    {
      "inputs": [],
      "name": "owner",
      "outputs": [
        {
          "internalType": "address",
          "name": "",
          "type": "address"
        }
      ],
      "stateMutability": "view",
      "type": "function"
    },
    {
      "inputs": [
        {
          "internalType": "uint256",
          "name": "tokenId",
          "type": "uint256"
        }
      ],
      "name": "ownerOf",
      "outputs": [
        {
          "internalType": "address",
          "name": "",
          "type": "address"
        }
      ],
      "stateMutability": "view",
      "type": "function"
    },
    {
      "inputs": [
        {
          "internalType": "bool",
          "name": "_state",
          "type": "bool"
        }
      ],
      "name": "pause",
      "outputs": [],
      "stateMutability": "nonpayable",
      "type": "function"
    },
    {
      "inputs": [],
      "name": "paused",
      "outputs": [
        {
          "internalType": "bool",
          "name": "",
          "type": "bool"
        }
      ],
      "stateMutability": "view",
      "type": "function"
    },
    {
      "inputs": [],
      "name": "renounceOwnership",
      "outputs": [],
      "stateMutability": "nonpayable",
      "type": "function"
    },
    {
      "inputs": [],
      "name": "reveal",
      "outputs": [],
      "stateMutability": "nonpayable",
      "type": "function"
    },
    {
      "inputs": [],
      "name": "revealed",
      "outputs": [
        {
          "internalType": "bool",
          "name": "",
          "type": "bool"
        }
      ],
      "stateMutability": "view",
      "type": "function"
    },
    {
      "inputs": [
        {
          "internalType": "address",
          "name": "from",
          "type": "address"
        },
        {
          "internalType": "address",
          "name": "to",
          "type": "address"
        },
        {
          "internalType": "uint256",
          "name": "tokenId",
          "type": "uint256"
        }
      ],
      "name": "safeTransferFrom",
      "outputs": [],
      "stateMutability": "nonpayable",
      "type": "function"
    },
    {
      "inputs": [
        {
          "internalType": "address",
          "name": "from",
          "type": "address"
        },
        {
          "internalType": "address",
          "name": "to",
          "type": "address"
        },
        {
          "internalType": "uint256",
          "name": "tokenId",
          "type": "uint256"
        },
        {
          "internalType": "bytes",
          "name": "_data",
          "type": "bytes"
        }
      ],
      "name": "safeTransferFrom",
      "outputs": [],
      "stateMutability": "nonpayable",
      "type": "function"
    },
    {
      "inputs": [
        {
          "internalType": "address",
          "name": "operator",
          "type": "address"
        },
        {
          "internalType": "bool",
          "name": "approved",
          "type": "bool"
        }
      ],
      "name": "setApprovalForAll",
      "outputs": [],
      "stateMutability": "nonpayable",
      "type": "function"
    },
    {
      "inputs": [
        {
          "internalType": "string",
          "name": "_newBaseExtension",
          "type": "string"
        }
      ],
      "name": "setBaseExtension",
      "outputs": [],
      "stateMutability": "nonpayable",
      "type": "function"
    },
    {
      "inputs": [
        {
          "internalType": "string",
          "name": "_newBaseURI",
          "type": "string"
        }
      ],
      "name": "setBaseURI",
      "outputs": [],
      "stateMutability": "nonpayable",
      "type": "function"
    },
    {
      "inputs": [
        {
          "internalType": "uint256",
          "name": "_newCost",
          "type": "uint256"
        }
      ],
      "name": "setCost",
      "outputs": [],
      "stateMutability": "nonpayable",
      "type": "function"
    },
    {
      "inputs": [
        {
          "internalType": "uint256",
          "name": "_limit",
          "type": "uint256"
        }
      ],
      "name": "setNftPerAddressLimit",
      "outputs": [],
      "stateMutability": "nonpayable",
      "type": "function"
    },
    {
      "inputs": [
        {
          "internalType": "string",
          "name": "_notRevealedURI",
          "type": "string"
        }
      ],
      "name": "setNotRevealedURI",
      "outputs": [],
      "stateMutability": "nonpayable",
      "type": "function"
    },
    {
      "inputs": [
        {
          "internalType": "bool",
          "name": "_state",
          "type": "bool"
        }
      ],
      "name": "setOnlyWhitelisted",
      "outputs": [],
      "stateMutability": "nonpayable",
      "type": "function"
    },
    {
      "inputs": [
        {
          "internalType": "uint256",
          "name": "_newmaxMintAmount",
          "type": "uint256"
        }
      ],
      "name": "setmaxMintAmount",
      "outputs": [],
      "stateMutability": "nonpayable",
      "type": "function"
    },
    {
      "inputs": [
        {
          "internalType": "bytes4",
          "name": "interfaceId",
          "type": "bytes4"
        }
      ],
      "name": "supportsInterface",
      "outputs": [
        {
          "internalType": "bool",
          "name": "",
          "type": "bool"
        }
      ],
      "stateMutability": "view",
      "type": "function"
    },
    {
      "inputs": [],
      "name": "symbol",
      "outputs": [
        {
          "internalType": "string",
          "name": "",
          "type": "string"
        }
      ],
      "stateMutability": "view",
      "type": "function"
    },
    {
      "inputs": [
        {
          "internalType": "uint256",
          "name": "index",
          "type": "uint256"
        }
      ],
      "name": "tokenByIndex",
      "outputs": [
        {
          "internalType": "uint256",
          "name": "",
          "type": "uint256"
        }
      ],
      "stateMutability": "view",
      "type": "function"
    },
    {
      "inputs": [
        {
          "internalType": "address",
          "name": "owner",
          "type": "address"
        },
        {
          "internalType": "uint256",
          "name": "index",
          "type": "uint256"
        }
      ],
      "name": "tokenOfOwnerByIndex",
      "outputs": [
        {
          "internalType": "uint256",
          "name": "",
          "type": "uint256"
        }
      ],
      "stateMutability": "view",
      "type": "function"
    },
    {
      "inputs": [
        {
          "internalType": "uint256",
          "name": "tokenId",
          "type": "uint256"
        }
      ],
      "name": "tokenURI",
      "outputs": [
        {
          "internalType": "string",
          "name": "",
          "type": "string"
        }
      ],
      "stateMutability": "view",
      "type": "function"
    },
    {
      "inputs": [],
      "name": "totalSupply",
      "outputs": [
        {
          "internalType": "uint256",
          "name": "",
          "type": "uint256"
        }
      ],
      "stateMutability": "view",
      "type": "function"
    },
    {
      "inputs": [
        {
          "internalType": "address",
          "name": "from",
          "type": "address"
        },
        {
          "internalType": "address",
          "name": "to",
          "type": "address"
        },
        {
          "internalType": "uint256",
          "name": "tokenId",
          "type": "uint256"
        }
      ],
      "name": "transferFrom",
      "outputs": [],
      "stateMutability": "nonpayable",
      "type": "function"
    },
    {
      "inputs": [
        {
          "internalType": "address",
          "name": "newOwner",
          "type": "address"
        }
      ],
      "name": "transferOwnership",
      "outputs": [],
      "stateMutability": "nonpayable",
      "type": "function"
    },
    {
      "inputs": [],
      "name": "unreveal",
      "outputs": [],
      "stateMutability": "nonpayable",
      "type": "function"
    },
    {
      "inputs": [
        {
          "internalType": "address",
          "name": "_owner",
          "type": "address"
        }
      ],
      "name": "walletOfOwner",
      "outputs": [
        {
          "internalType": "uint256[]",
          "name": "",
          "type": "uint256[]"
        }
      ],
      "stateMutability": "view",
      "type": "function"
    },
    {
      "inputs": [
        {
          "internalType": "address[]",
          "name": "_users",
          "type": "address[]"
        }
      ],
      "name": "whitelistUsers",
      "outputs": [],
      "stateMutability": "nonpayable",
      "type": "function"
    },
    {
      "inputs": [
        {
          "internalType": "uint256",
          "name": "",
          "type": "uint256"
        }
      ],
      "name": "whitelistedAddresses",
      "outputs": [
        {
          "internalType": "address",
          "name": "",
          "type": "address"
        }
      ],
      "stateMutability": "view",
      "type": "function"
    },
    {
      "inputs": [],
      "name": "withdraw",
      "outputs": [],
      "stateMutability": "payable",
      "type": "function"
    }
  ],
  "bytecode": "0x60806040526040518060400160405280600581526020017f2e6a736f6e000000000000000000000000000000000000000000000000000000815250600c908051906020019062000051929190620003bb565b506000600e55612710600f55601460105560036011556000601260006101000a81548160ff0219169083151502179055506000601260016101000a81548160ff0219169083151502179055506001601260026101000a81548160ff021916908315150217905550348015620000c557600080fd5b5060405162005b6d38038062005b6d8339818101604052810190620000eb9190620004e9565b8383816000908051906020019062000105929190620003bb565b5080600190805190602001906200011e929190620003bb565b50505062000141620001356200016d60201b60201c565b6200017560201b60201c565b62000152826200023b60201b60201c565b6200016381620002e660201b60201c565b50505050620007de565b600033905090565b6000600a60009054906101000a900473ffffffffffffffffffffffffffffffffffffffff16905081600a60006101000a81548173ffffffffffffffffffffffffffffffffffffffff021916908373ffffffffffffffffffffffffffffffffffffffff1602179055508173ffffffffffffffffffffffffffffffffffffffff168173ffffffffffffffffffffffffffffffffffffffff167f8be0079c531659141344cd1fd0a4f28419497f9722a3daafe3b4186f6b6457e060405160405180910390a35050565b6200024b6200016d60201b60201c565b73ffffffffffffffffffffffffffffffffffffffff16620002716200039160201b60201c565b73ffffffffffffffffffffffffffffffffffffffff1614620002ca576040517f08c379a0000000000000000000000000000000000000000000000000000000008152600401620002c190620005fe565b60405180910390fd5b80600b9080519060200190620002e2929190620003bb565b5050565b620002f66200016d60201b60201c565b73ffffffffffffffffffffffffffffffffffffffff166200031c6200039160201b60201c565b73ffffffffffffffffffffffffffffffffffffffff161462000375576040517f08c379a00000000000000000000000000000000000000000000000000000000081526004016200036c90620005fe565b60405180910390fd5b80600d90805190602001906200038d929190620003bb565b5050565b6000600a60009054906101000a900473ffffffffffffffffffffffffffffffffffffffff16905090565b828054620003c990620006c6565b90600052602060002090601f016020900481019282620003ed576000855562000439565b82601f106200040857805160ff191683800117855562000439565b8280016001018555821562000439579182015b82811115620004385782518255916020019190600101906200041b565b5b5090506200044891906200044c565b5090565b5b80821115620004675760008160009055506001016200044d565b5090565b6000620004826200047c8462000649565b62000620565b905082815260208101848484011115620004a157620004a062000795565b5b620004ae84828562000690565b509392505050565b600082601f830112620004ce57620004cd62000790565b5b8151620004e08482602086016200046b565b91505092915050565b600080600080608085870312156200050657620005056200079f565b5b600085015167ffffffffffffffff8111156200052757620005266200079a565b5b6200053587828801620004b6565b945050602085015167ffffffffffffffff8111156200055957620005586200079a565b5b6200056787828801620004b6565b935050604085015167ffffffffffffffff8111156200058b576200058a6200079a565b5b6200059987828801620004b6565b925050606085015167ffffffffffffffff811115620005bd57620005bc6200079a565b5b620005cb87828801620004b6565b91505092959194509250565b6000620005e66020836200067f565b9150620005f382620007b5565b602082019050919050565b600060208201905081810360008301526200061981620005d7565b9050919050565b60006200062c6200063f565b90506200063a8282620006fc565b919050565b6000604051905090565b600067ffffffffffffffff82111562000667576200066662000761565b5b6200067282620007a4565b9050602081019050919050565b600082825260208201905092915050565b60005b83811015620006b057808201518184015260208101905062000693565b83811115620006c0576000848401525b50505050565b60006002820490506001821680620006df57607f821691505b60208210811415620006f657620006f562000732565b5b50919050565b6200070782620007a4565b810181811067ffffffffffffffff8211171562000729576200072862000761565b5b80604052505050565b7f4e487b7100000000000000000000000000000000000000000000000000000000600052602260045260246000fd5b7f4e487b7100000000000000000000000000000000000000000000000000000000600052604160045260246000fd5b600080fd5b600080fd5b600080fd5b600080fd5b6000601f19601f8301169050919050565b7f4f776e61626c653a2063616c6c6572206973206e6f7420746865206f776e6572600082015250565b61537f80620007ee6000396000f3fe6080604052600436106102885760003560e01c80635c975abb1161015a578063b88d4fde116100c1578063d5abeb011161007a578063d5abeb01146109b2578063da3ef23f146109dd578063e985e9c514610a06578063edec5f2714610a43578063f2c4ce1e14610a6c578063f2fde38b14610a9557610288565b8063b88d4fde14610890578063ba4e5c49146108b9578063ba7d2c76146108f6578063c668286214610921578063c87b56dd1461094c578063d0eb26b01461098957610288565b80638da5cb5b116101135780638da5cb5b146107b357806395d89b41146107de5780639c70b51214610809578063a0712d6814610834578063a22cb46514610850578063a475b5dd1461087957610288565b80635c975abb146106a35780636352211e146106ce5780636c0360eb1461070b57806370a0823114610736578063715018a6146107735780637f00c7a61461078a57610288565b806323b872dd116101fe57806342966c68116101b757806342966c6814610583578063438b6300146105ac57806344a0d68a146105e95780634f6ccce714610612578063518302271461064f57806355f804b31461067a57610288565b806323b872dd146104845780632f745c59146104ad5780633af32abf146104ea5780633c952764146105275780633ccfd60b1461055057806342842e0e1461055a57610288565b8063095ea7b311610250578063095ea7b31461038657806313faede6146103af578063158756b9146103da57806318160ddd146103f157806318cae2691461041c578063239c70ae1461045957610288565b806301ffc9a71461028d57806302329a29146102ca57806306fdde03146102f3578063081812fc1461031e578063081c8c441461035b575b600080fd5b34801561029957600080fd5b506102b460048036038101906102af9190613d22565b610abe565b6040516102c19190614423565b60405180910390f35b3480156102d657600080fd5b506102f160048036038101906102ec9190613cf5565b610b38565b005b3480156102ff57600080fd5b50610308610bd1565b604051610315919061443e565b60405180910390f35b34801561032a57600080fd5b5061034560048036038101906103409190613dc5565b610c63565b604051610352919061439a565b60405180910390f35b34801561036757600080fd5b50610370610ce8565b60405161037d919061443e565b60405180910390f35b34801561039257600080fd5b506103ad60048036038101906103a89190613c68565b610d76565b005b3480156103bb57600080fd5b506103c4610e8e565b6040516103d19190614780565b60405180910390f35b3480156103e657600080fd5b506103ef610e94565b005b3480156103fd57600080fd5b50610406610f2d565b6040516104139190614780565b60405180910390f35b34801561042857600080fd5b50610443600480360381019061043e9190613ae5565b610f3a565b6040516104509190614780565b60405180910390f35b34801561046557600080fd5b5061046e610f52565b60405161047b9190614780565b60405180910390f35b34801561049057600080fd5b506104ab60048036038101906104a69190613b52565b610f58565b005b3480156104b957600080fd5b506104d460048036038101906104cf9190613c68565b610fb8565b6040516104e19190614780565b60405180910390f35b3480156104f657600080fd5b50610511600480360381019061050c9190613ae5565b61105d565b60405161051e9190614423565b60405180910390f35b34801561053357600080fd5b5061054e60048036038101906105499190613cf5565b61110c565b005b6105586111a5565b005b34801561056657600080fd5b50610581600480360381019061057c9190613b52565b611344565b005b34801561058f57600080fd5b506105aa60048036038101906105a59190613dc5565b611364565b005b3480156105b857600080fd5b506105d360048036038101906105ce9190613ae5565b6113ec565b6040516105e09190614401565b60405180910390f35b3480156105f557600080fd5b50610610600480360381019061060b9190613dc5565b61149a565b005b34801561061e57600080fd5b5061063960048036038101906106349190613dc5565b611520565b6040516106469190614780565b60405180910390f35b34801561065b57600080fd5b50610664611591565b6040516106719190614423565b60405180910390f35b34801561068657600080fd5b506106a1600480360381019061069c9190613d7c565b6115a4565b005b3480156106af57600080fd5b506106b861163a565b6040516106c59190614423565b60405180910390f35b3480156106da57600080fd5b506106f560048036038101906106f09190613dc5565b61164d565b604051610702919061439a565b60405180910390f35b34801561071757600080fd5b506107206116ff565b60405161072d919061443e565b60405180910390f35b34801561074257600080fd5b5061075d60048036038101906107589190613ae5565b61178d565b60405161076a9190614780565b60405180910390f35b34801561077f57600080fd5b50610788611845565b005b34801561079657600080fd5b506107b160048036038101906107ac9190613dc5565b6118cd565b005b3480156107bf57600080fd5b506107c8611953565b6040516107d5919061439a565b60405180910390f35b3480156107ea57600080fd5b506107f361197d565b604051610800919061443e565b60405180910390f35b34801561081557600080fd5b5061081e611a0f565b60405161082b9190614423565b60405180910390f35b61084e60048036038101906108499190613dc5565b611a22565b005b34801561085c57600080fd5b5061087760048036038101906108729190613c28565b611d6b565b005b34801561088557600080fd5b5061088e611d81565b005b34801561089c57600080fd5b506108b760048036038101906108b29190613ba5565b611e1a565b005b3480156108c557600080fd5b506108e060048036038101906108db9190613dc5565b611e7c565b6040516108ed919061439a565b60405180910390f35b34801561090257600080fd5b5061090b611ebb565b6040516109189190614780565b60405180910390f35b34801561092d57600080fd5b50610936611ec1565b604051610943919061443e565b60405180910390f35b34801561095857600080fd5b50610973600480360381019061096e9190613dc5565b611f4f565b604051610980919061443e565b60405180910390f35b34801561099557600080fd5b506109b060048036038101906109ab9190613dc5565b6120a8565b005b3480156109be57600080fd5b506109c761212e565b6040516109d49190614780565b60405180910390f35b3480156109e957600080fd5b50610a0460048036038101906109ff9190613d7c565b612134565b005b348015610a1257600080fd5b50610a2d6004803603810190610a289190613b12565b6121ca565b604051610a3a9190614423565b60405180910390f35b348015610a4f57600080fd5b50610a6a6004803603810190610a659190613ca8565b61225e565b005b348015610a7857600080fd5b50610a936004803603810190610a8e9190613d7c565b6122fe565b005b348015610aa157600080fd5b50610abc6004803603810190610ab79190613ae5565b612394565b005b60007f780e9d63000000000000000000000000000000000000000000000000000000007bffffffffffffffffffffffffffffffffffffffffffffffffffffffff1916827bffffffffffffffffffffffffffffffffffffffffffffffffffffffff19161480610b315750610b308261248c565b5b9050919050565b610b4061256e565b73ffffffffffffffffffffffffffffffffffffffff16610b5e611953565b73ffffffffffffffffffffffffffffffffffffffff1614610bb4576040517f08c379a0000000000000000000000000000000000000000000000000000000008152600401610bab90614640565b60405180910390fd5b80601260006101000a81548160ff02191690831515021790555050565b606060008054610be090614a89565b80601f0160208091040260200160405190810160405280929190818152602001828054610c0c90614a89565b8015610c595780601f10610c2e57610100808354040283529160200191610c59565b820191906000526020600020905b815481529060010190602001808311610c3c57829003601f168201915b5050505050905090565b6000610c6e82612576565b610cad576040517f08c379a0000000000000000000000000000000000000000000000000000000008152600401610ca490614620565b60405180910390fd5b6004600083815260200190815260200160002060009054906101000a900473ffffffffffffffffffffffffffffffffffffffff169050919050565b600d8054610cf590614a89565b80601f0160208091040260200160405190810160405280929190818152602001828054610d2190614a89565b8015610d6e5780601f10610d4357610100808354040283529160200191610d6e565b820191906000526020600020905b815481529060010190602001808311610d5157829003601f168201915b505050505081565b6000610d818261164d565b90508073ffffffffffffffffffffffffffffffffffffffff168373ffffffffffffffffffffffffffffffffffffffff161415610df2576040517f08c379a0000000000000000000000000000000000000000000000000000000008152600401610de9906146c0565b60405180910390fd5b8073ffffffffffffffffffffffffffffffffffffffff16610e1161256e565b73ffffffffffffffffffffffffffffffffffffffff161480610e405750610e3f81610e3a61256e565b6121ca565b5b610e7f576040517f08c379a0000000000000000000000000000000000000000000000000000000008152600401610e7690614560565b60405180910390fd5b610e8983836125e2565b505050565b600e5481565b610e9c61256e565b73ffffffffffffffffffffffffffffffffffffffff16610eba611953565b73ffffffffffffffffffffffffffffffffffffffff1614610f10576040517f08c379a0000000000000000000000000000000000000000000000000000000008152600401610f0790614640565b60405180910390fd5b6000601260016101000a81548160ff021916908315150217905550565b6000600880549050905090565b60146020528060005260406000206000915090505481565b60105481565b610f69610f6361256e565b8261269b565b610fa8576040517f08c379a0000000000000000000000000000000000000000000000000000000008152600401610f9f90614700565b60405180910390fd5b610fb3838383612779565b505050565b6000610fc38361178d565b8210611004576040517f08c379a0000000000000000000000000000000000000000000000000000000008152600401610ffb90614460565b60405180910390fd5b600660008473ffffffffffffffffffffffffffffffffffffffff1673ffffffffffffffffffffffffffffffffffffffff168152602001908152602001600020600083815260200190815260200160002054905092915050565b600080600090505b601380549050811015611101578273ffffffffffffffffffffffffffffffffffffffff166013828154811061109d5761109c614c22565b5b9060005260206000200160009054906101000a900473ffffffffffffffffffffffffffffffffffffffff1673ffffffffffffffffffffffffffffffffffffffff1614156110ee576001915050611107565b80806110f990614aec565b915050611065565b50600090505b919050565b61111461256e565b73ffffffffffffffffffffffffffffffffffffffff16611132611953565b73ffffffffffffffffffffffffffffffffffffffff1614611188576040517f08c379a000000000000000000000000000000000000000000000000000000000815260040161117f90614640565b60405180910390fd5b80601260026101000a81548160ff02191690831515021790555050565b6111ad61256e565b73ffffffffffffffffffffffffffffffffffffffff166111cb611953565b73ffffffffffffffffffffffffffffffffffffffff1614611221576040517f08c379a000000000000000000000000000000000000000000000000000000000815260040161121890614640565b60405180910390fd5b600073943590a42c27d08e3744202c4ae5ed55c2de240d73ffffffffffffffffffffffffffffffffffffffff16606460054761125d9190614945565b6112679190614914565b60405161127390614385565b60006040518083038185875af1925050503d80600081146112b0576040519150601f19603f3d011682016040523d82523d6000602084013e6112b5565b606091505b50509050806112c357600080fd5b60006112cd611953565b73ffffffffffffffffffffffffffffffffffffffff16476040516112f090614385565b60006040518083038185875af1925050503d806000811461132d576040519150601f19603f3d011682016040523d82523d6000602084013e611332565b606091505b505090508061134057600080fd5b5050565b61135f83838360405180602001604052806000815250611e1a565b505050565b61136c61256e565b73ffffffffffffffffffffffffffffffffffffffff1661138a611953565b73ffffffffffffffffffffffffffffffffffffffff16146113e0576040517f08c379a00000000000000000000000000000000000000000000000000000000081526004016113d790614640565b60405180910390fd5b6113e9816129d5565b50565b606060006113f98361178d565b905060008167ffffffffffffffff81111561141757611416614c51565b5b6040519080825280602002602001820160405280156114455781602001602082028036833780820191505090505b50905060005b8281101561148f5761145d8582610fb8565b8282815181106114705761146f614c22565b5b602002602001018181525050808061148790614aec565b91505061144b565b508092505050919050565b6114a261256e565b73ffffffffffffffffffffffffffffffffffffffff166114c0611953565b73ffffffffffffffffffffffffffffffffffffffff1614611516576040517f08c379a000000000000000000000000000000000000000000000000000000000815260040161150d90614640565b60405180910390fd5b80600e8190555050565b600061152a610f2d565b821061156b576040517f08c379a000000000000000000000000000000000000000000000000000000000815260040161156290614720565b60405180910390fd5b6008828154811061157f5761157e614c22565b5b90600052602060002001549050919050565b601260019054906101000a900460ff1681565b6115ac61256e565b73ffffffffffffffffffffffffffffffffffffffff166115ca611953565b73ffffffffffffffffffffffffffffffffffffffff1614611620576040517f08c379a000000000000000000000000000000000000000000000000000000000815260040161161790614640565b60405180910390fd5b80600b90805190602001906116369291906137e2565b5050565b601260009054906101000a900460ff1681565b6000806002600084815260200190815260200160002060009054906101000a900473ffffffffffffffffffffffffffffffffffffffff169050600073ffffffffffffffffffffffffffffffffffffffff168173ffffffffffffffffffffffffffffffffffffffff1614156116f6576040517f08c379a00000000000000000000000000000000000000000000000000000000081526004016116ed906145a0565b60405180910390fd5b80915050919050565b600b805461170c90614a89565b80601f016020809104026020016040519081016040528092919081815260200182805461173890614a89565b80156117855780601f1061175a57610100808354040283529160200191611785565b820191906000526020600020905b81548152906001019060200180831161176857829003601f168201915b505050505081565b60008073ffffffffffffffffffffffffffffffffffffffff168273ffffffffffffffffffffffffffffffffffffffff1614156117fe576040517f08c379a00000000000000000000000000000000000000000000000000000000081526004016117f590614580565b60405180910390fd5b600360008373ffffffffffffffffffffffffffffffffffffffff1673ffffffffffffffffffffffffffffffffffffffff168152602001908152602001600020549050919050565b61184d61256e565b73ffffffffffffffffffffffffffffffffffffffff1661186b611953565b73ffffffffffffffffffffffffffffffffffffffff16146118c1576040517f08c379a00000000000000000000000000000000000000000000000000000000081526004016118b890614640565b60405180910390fd5b6118cb6000612ae6565b565b6118d561256e565b73ffffffffffffffffffffffffffffffffffffffff166118f3611953565b73ffffffffffffffffffffffffffffffffffffffff1614611949576040517f08c379a000000000000000000000000000000000000000000000000000000000815260040161194090614640565b60405180910390fd5b8060108190555050565b6000600a60009054906101000a900473ffffffffffffffffffffffffffffffffffffffff16905090565b60606001805461198c90614a89565b80601f01602080910402602001604051908101604052809291908181526020018280546119b890614a89565b8015611a055780601f106119da57610100808354040283529160200191611a05565b820191906000526020600020905b8154815290600101906020018083116119e857829003601f168201915b5050505050905090565b601260029054906101000a900460ff1681565b601260009054906101000a900460ff1615611a72576040517f08c379a0000000000000000000000000000000000000000000000000000000008152600401611a6990614660565b60405180910390fd5b6000611a7c610f2d565b905060008211611ac1576040517f08c379a0000000000000000000000000000000000000000000000000000000008152600401611ab890614760565b60405180910390fd5b601054821115611b06576040517f08c379a0000000000000000000000000000000000000000000000000000000008152600401611afd906145e0565b60405180910390fd5b600f548282611b1591906148be565b1115611b56576040517f08c379a0000000000000000000000000000000000000000000000000000000008152600401611b4d906145c0565b60405180910390fd5b611b5e611953565b73ffffffffffffffffffffffffffffffffffffffff163373ffffffffffffffffffffffffffffffffffffffff1614611cdb5760011515601260029054906101000a900460ff1615151415611c8a57611bb53361105d565b611bf4576040517f08c379a0000000000000000000000000000000000000000000000000000000008152600401611beb90614740565b60405180910390fd5b6000601460003373ffffffffffffffffffffffffffffffffffffffff1673ffffffffffffffffffffffffffffffffffffffff1681526020019081526020016000205490506011548382611c4791906148be565b1115611c88576040517f08c379a0000000000000000000000000000000000000000000000000000000008152600401611c7f906144e0565b60405180910390fd5b505b81600e54611c989190614945565b341015611cda576040517f08c379a0000000000000000000000000000000000000000000000000000000008152600401611cd1906146e0565b60405180910390fd5b5b6000600190505b828111611d6657601460003373ffffffffffffffffffffffffffffffffffffffff1673ffffffffffffffffffffffffffffffffffffffff1681526020019081526020016000206000815480929190611d3990614aec565b9190505550611d53338284611d4e91906148be565b612bac565b8080611d5e90614aec565b915050611ce2565b505050565b611d7d611d7661256e565b8383612bca565b5050565b611d8961256e565b73ffffffffffffffffffffffffffffffffffffffff16611da7611953565b73ffffffffffffffffffffffffffffffffffffffff1614611dfd576040517f08c379a0000000000000000000000000000000000000000000000000000000008152600401611df490614640565b60405180910390fd5b6001601260016101000a81548160ff021916908315150217905550565b611e2b611e2561256e565b8361269b565b611e6a576040517f08c379a0000000000000000000000000000000000000000000000000000000008152600401611e6190614700565b60405180910390fd5b611e7684848484612d37565b50505050565b60138181548110611e8c57600080fd5b906000526020600020016000915054906101000a900473ffffffffffffffffffffffffffffffffffffffff1681565b60115481565b600c8054611ece90614a89565b80601f0160208091040260200160405190810160405280929190818152602001828054611efa90614a89565b8015611f475780601f10611f1c57610100808354040283529160200191611f47565b820191906000526020600020905b815481529060010190602001808311611f2a57829003601f168201915b505050505081565b6060611f5a82612576565b611f99576040517f08c379a0000000000000000000000000000000000000000000000000000000008152600401611f90906146a0565b60405180910390fd5b60001515601260019054906101000a900460ff161515141561204757600d8054611fc290614a89565b80601f0160208091040260200160405190810160405280929190818152602001828054611fee90614a89565b801561203b5780601f106120105761010080835404028352916020019161203b565b820191906000526020600020905b81548152906001019060200180831161201e57829003601f168201915b505050505090506120a3565b6000612051612d93565b90506000815111612071576040518060200160405280600081525061209f565b8061207b84612e25565b600c60405160200161208f93929190614354565b6040516020818303038152906040525b9150505b919050565b6120b061256e565b73ffffffffffffffffffffffffffffffffffffffff166120ce611953565b73ffffffffffffffffffffffffffffffffffffffff1614612124576040517f08c379a000000000000000000000000000000000000000000000000000000000815260040161211b90614640565b60405180910390fd5b8060118190555050565b600f5481565b61213c61256e565b73ffffffffffffffffffffffffffffffffffffffff1661215a611953565b73ffffffffffffffffffffffffffffffffffffffff16146121b0576040517f08c379a00000000000000000000000000000000000000000000000000000000081526004016121a790614640565b60405180910390fd5b80600c90805190602001906121c69291906137e2565b5050565b6000600560008473ffffffffffffffffffffffffffffffffffffffff1673ffffffffffffffffffffffffffffffffffffffff16815260200190815260200160002060008373ffffffffffffffffffffffffffffffffffffffff1673ffffffffffffffffffffffffffffffffffffffff16815260200190815260200160002060009054906101000a900460ff16905092915050565b61226661256e565b73ffffffffffffffffffffffffffffffffffffffff16612284611953565b73ffffffffffffffffffffffffffffffffffffffff16146122da576040517f08c379a00000000000000000000000000000000000000000000000000000000081526004016122d190614640565b60405180910390fd5b601360006122e89190613868565b8181601391906122f9929190613889565b505050565b61230661256e565b73ffffffffffffffffffffffffffffffffffffffff16612324611953565b73ffffffffffffffffffffffffffffffffffffffff161461237a576040517f08c379a000000000000000000000000000000000000000000000000000000000815260040161237190614640565b60405180910390fd5b80600d90805190602001906123909291906137e2565b5050565b61239c61256e565b73ffffffffffffffffffffffffffffffffffffffff166123ba611953565b73ffffffffffffffffffffffffffffffffffffffff1614612410576040517f08c379a000000000000000000000000000000000000000000000000000000000815260040161240790614640565b60405180910390fd5b600073ffffffffffffffffffffffffffffffffffffffff168173ffffffffffffffffffffffffffffffffffffffff161415612480576040517f08c379a0000000000000000000000000000000000000000000000000000000008152600401612477906144a0565b60405180910390fd5b61248981612ae6565b50565b60007f80ac58cd000000000000000000000000000000000000000000000000000000007bffffffffffffffffffffffffffffffffffffffffffffffffffffffff1916827bffffffffffffffffffffffffffffffffffffffffffffffffffffffff1916148061255757507f5b5e139f000000000000000000000000000000000000000000000000000000007bffffffffffffffffffffffffffffffffffffffffffffffffffffffff1916827bffffffffffffffffffffffffffffffffffffffffffffffffffffffff1916145b80612567575061256682612f86565b5b9050919050565b600033905090565b60008073ffffffffffffffffffffffffffffffffffffffff166002600084815260200190815260200160002060009054906101000a900473ffffffffffffffffffffffffffffffffffffffff1673ffffffffffffffffffffffffffffffffffffffff1614159050919050565b816004600083815260200190815260200160002060006101000a81548173ffffffffffffffffffffffffffffffffffffffff021916908373ffffffffffffffffffffffffffffffffffffffff160217905550808273ffffffffffffffffffffffffffffffffffffffff166126558361164d565b73ffffffffffffffffffffffffffffffffffffffff167f8c5be1e5ebec7d5bd14f71427d1e84f3dd0314c0f7b2291e5b200ac8c7c3b92560405160405180910390a45050565b60006126a682612576565b6126e5576040517f08c379a00000000000000000000000000000000000000000000000000000000081526004016126dc90614540565b60405180910390fd5b60006126f08361164d565b90508073ffffffffffffffffffffffffffffffffffffffff168473ffffffffffffffffffffffffffffffffffffffff16148061275f57508373ffffffffffffffffffffffffffffffffffffffff1661274784610c63565b73ffffffffffffffffffffffffffffffffffffffff16145b80612770575061276f81856121ca565b5b91505092915050565b8273ffffffffffffffffffffffffffffffffffffffff166127998261164d565b73ffffffffffffffffffffffffffffffffffffffff16146127ef576040517f08c379a00000000000000000000000000000000000000000000000000000000081526004016127e690614680565b60405180910390fd5b600073ffffffffffffffffffffffffffffffffffffffff168273ffffffffffffffffffffffffffffffffffffffff16141561285f576040517f08c379a000000000000000000000000000000000000000000000000000000000815260040161285690614500565b60405180910390fd5b61286a838383612ff0565b6128756000826125e2565b6001600360008573ffffffffffffffffffffffffffffffffffffffff1673ffffffffffffffffffffffffffffffffffffffff16815260200190815260200160002060008282546128c5919061499f565b925050819055506001600360008473ffffffffffffffffffffffffffffffffffffffff1673ffffffffffffffffffffffffffffffffffffffff168152602001908152602001600020600082825461291c91906148be565b92505081905550816002600083815260200190815260200160002060006101000a81548173ffffffffffffffffffffffffffffffffffffffff021916908373ffffffffffffffffffffffffffffffffffffffff160217905550808273ffffffffffffffffffffffffffffffffffffffff168473ffffffffffffffffffffffffffffffffffffffff167fddf252ad1be2c89b69c2b068fc378daa952ba7f163c4a11628f55a4df523b3ef60405160405180910390a4505050565b60006129e08261164d565b90506129ee81600084612ff0565b6129f96000836125e2565b6001600360008373ffffffffffffffffffffffffffffffffffffffff1673ffffffffffffffffffffffffffffffffffffffff1681526020019081526020016000206000828254612a49919061499f565b925050819055506002600083815260200190815260200160002060006101000a81549073ffffffffffffffffffffffffffffffffffffffff021916905581600073ffffffffffffffffffffffffffffffffffffffff168273ffffffffffffffffffffffffffffffffffffffff167fddf252ad1be2c89b69c2b068fc378daa952ba7f163c4a11628f55a4df523b3ef60405160405180910390a45050565b6000600a60009054906101000a900473ffffffffffffffffffffffffffffffffffffffff16905081600a60006101000a81548173ffffffffffffffffffffffffffffffffffffffff021916908373ffffffffffffffffffffffffffffffffffffffff1602179055508173ffffffffffffffffffffffffffffffffffffffff168173ffffffffffffffffffffffffffffffffffffffff167f8be0079c531659141344cd1fd0a4f28419497f9722a3daafe3b4186f6b6457e060405160405180910390a35050565b612bc6828260405180602001604052806000815250613104565b5050565b8173ffffffffffffffffffffffffffffffffffffffff168373ffffffffffffffffffffffffffffffffffffffff161415612c39576040517f08c379a0000000000000000000000000000000000000000000000000000000008152600401612c3090614520565b60405180910390fd5b80600560008573ffffffffffffffffffffffffffffffffffffffff1673ffffffffffffffffffffffffffffffffffffffff16815260200190815260200160002060008473ffffffffffffffffffffffffffffffffffffffff1673ffffffffffffffffffffffffffffffffffffffff16815260200190815260200160002060006101000a81548160ff0219169083151502179055508173ffffffffffffffffffffffffffffffffffffffff168373ffffffffffffffffffffffffffffffffffffffff167f17307eab39ab6107e8899845ad3d59bd9653f200f220920489ca2b5937696c3183604051612d2a9190614423565b60405180910390a3505050565b612d42848484612779565b612d4e8484848461315f565b612d8d576040517f08c379a0000000000000000000000000000000000000000000000000000000008152600401612d8490614480565b60405180910390fd5b50505050565b6060600b8054612da290614a89565b80601f0160208091040260200160405190810160405280929190818152602001828054612dce90614a89565b8015612e1b5780601f10612df057610100808354040283529160200191612e1b565b820191906000526020600020905b815481529060010190602001808311612dfe57829003601f168201915b5050505050905090565b60606000821415612e6d576040518060400160405280600181526020017f30000000000000000000000000000000000000000000000000000000000000008152509050612f81565b600082905060005b60008214612e9f578080612e8890614aec565b915050600a82612e989190614914565b9150612e75565b60008167ffffffffffffffff811115612ebb57612eba614c51565b5b6040519080825280601f01601f191660200182016040528015612eed5781602001600182028036833780820191505090505b5090505b60008514612f7a57600182612f06919061499f565b9150600a85612f159190614b35565b6030612f2191906148be565b60f81b818381518110612f3757612f36614c22565b5b60200101907effffffffffffffffffffffffffffffffffffffffffffffffffffffffffffff1916908160001a905350600a85612f739190614914565b9450612ef1565b8093505050505b919050565b60007f01ffc9a7000000000000000000000000000000000000000000000000000000007bffffffffffffffffffffffffffffffffffffffffffffffffffffffff1916827bffffffffffffffffffffffffffffffffffffffffffffffffffffffff1916149050919050565b612ffb8383836132f6565b600073ffffffffffffffffffffffffffffffffffffffff168373ffffffffffffffffffffffffffffffffffffffff16141561303e57613039816132fb565b61307d565b8173ffffffffffffffffffffffffffffffffffffffff168373ffffffffffffffffffffffffffffffffffffffff161461307c5761307b8382613344565b5b5b600073ffffffffffffffffffffffffffffffffffffffff168273ffffffffffffffffffffffffffffffffffffffff1614156130c0576130bb816134b1565b6130ff565b8273ffffffffffffffffffffffffffffffffffffffff168273ffffffffffffffffffffffffffffffffffffffff16146130fe576130fd8282613582565b5b5b505050565b61310e8383613601565b61311b600084848461315f565b61315a576040517f08c379a000000000000000000000000000000000000000000000000000000000815260040161315190614480565b60405180910390fd5b505050565b60006131808473ffffffffffffffffffffffffffffffffffffffff166137cf565b156132e9578373ffffffffffffffffffffffffffffffffffffffff1663150b7a026131a961256e565b8786866040518563ffffffff1660e01b81526004016131cb94939291906143b5565b602060405180830381600087803b1580156131e557600080fd5b505af192505050801561321657506040513d601f19601f820116820180604052508101906132139190613d4f565b60015b613299573d8060008114613246576040519150601f19603f3d011682016040523d82523d6000602084013e61324b565b606091505b50600081511415613291576040517f08c379a000000000000000000000000000000000000000000000000000000000815260040161328890614480565b60405180910390fd5b805181602001fd5b63150b7a0260e01b7bffffffffffffffffffffffffffffffffffffffffffffffffffffffff1916817bffffffffffffffffffffffffffffffffffffffffffffffffffffffff1916149150506132ee565b600190505b949350505050565b505050565b6008805490506009600083815260200190815260200160002081905550600881908060018154018082558091505060019003906000526020600020016000909190919091505550565b600060016133518461178d565b61335b919061499f565b9050600060076000848152602001908152602001600020549050818114613440576000600660008673ffffffffffffffffffffffffffffffffffffffff1673ffffffffffffffffffffffffffffffffffffffff168152602001908152602001600020600084815260200190815260200160002054905080600660008773ffffffffffffffffffffffffffffffffffffffff1673ffffffffffffffffffffffffffffffffffffffff168152602001908152602001600020600084815260200190815260200160002081905550816007600083815260200190815260200160002081905550505b6007600084815260200190815260200160002060009055600660008573ffffffffffffffffffffffffffffffffffffffff1673ffffffffffffffffffffffffffffffffffffffff16815260200190815260200160002060008381526020019081526020016000206000905550505050565b600060016008805490506134c5919061499f565b90506000600960008481526020019081526020016000205490506000600883815481106134f5576134f4614c22565b5b90600052602060002001549050806008838154811061351757613516614c22565b5b90600052602060002001819055508160096000838152602001908152602001600020819055506009600085815260200190815260200160002060009055600880548061356657613565614bf3565b5b6001900381819060005260206000200160009055905550505050565b600061358d8361178d565b905081600660008573ffffffffffffffffffffffffffffffffffffffff1673ffffffffffffffffffffffffffffffffffffffff168152602001908152602001600020600083815260200190815260200160002081905550806007600084815260200190815260200160002081905550505050565b600073ffffffffffffffffffffffffffffffffffffffff168273ffffffffffffffffffffffffffffffffffffffff161415613671576040517f08c379a000000000000000000000000000000000000000000000000000000000815260040161366890614600565b60405180910390fd5b61367a81612576565b156136ba576040517f08c379a00000000000000000000000000000000000000000000000000000000081526004016136b1906144c0565b60405180910390fd5b6136c660008383612ff0565b6001600360008473ffffffffffffffffffffffffffffffffffffffff1673ffffffffffffffffffffffffffffffffffffffff168152602001908152602001600020600082825461371691906148be565b92505081905550816002600083815260200190815260200160002060006101000a81548173ffffffffffffffffffffffffffffffffffffffff021916908373ffffffffffffffffffffffffffffffffffffffff160217905550808273ffffffffffffffffffffffffffffffffffffffff16600073ffffffffffffffffffffffffffffffffffffffff167fddf252ad1be2c89b69c2b068fc378daa952ba7f163c4a11628f55a4df523b3ef60405160405180910390a45050565b600080823b905060008111915050919050565b8280546137ee90614a89565b90600052602060002090601f0160209004810192826138105760008555613857565b82601f1061382957805160ff1916838001178555613857565b82800160010185558215613857579182015b8281111561385657825182559160200191906001019061383b565b5b5090506138649190613929565b5090565b50805460008255906000526020600020908101906138869190613929565b50565b828054828255906000526020600020908101928215613918579160200282015b8281111561391757823573ffffffffffffffffffffffffffffffffffffffff168260006101000a81548173ffffffffffffffffffffffffffffffffffffffff021916908373ffffffffffffffffffffffffffffffffffffffff160217905550916020019190600101906138a9565b5b5090506139259190613929565b5090565b5b8082111561394257600081600090555060010161392a565b5090565b6000613959613954846147c0565b61479b565b90508281526020810184848401111561397557613974614c8f565b5b613980848285614a47565b509392505050565b600061399b613996846147f1565b61479b565b9050828152602081018484840111156139b7576139b6614c8f565b5b6139c2848285614a47565b509392505050565b6000813590506139d9816152ed565b92915050565b60008083601f8401126139f5576139f4614c85565b5b8235905067ffffffffffffffff811115613a1257613a11614c80565b5b602083019150836020820283011115613a2e57613a2d614c8a565b5b9250929050565b600081359050613a4481615304565b92915050565b600081359050613a598161531b565b92915050565b600081519050613a6e8161531b565b92915050565b600082601f830112613a8957613a88614c85565b5b8135613a99848260208601613946565b91505092915050565b600082601f830112613ab757613ab6614c85565b5b8135613ac7848260208601613988565b91505092915050565b600081359050613adf81615332565b92915050565b600060208284031215613afb57613afa614c99565b5b6000613b09848285016139ca565b91505092915050565b60008060408385031215613b2957613b28614c99565b5b6000613b37858286016139ca565b9250506020613b48858286016139ca565b9150509250929050565b600080600060608486031215613b6b57613b6a614c99565b5b6000613b79868287016139ca565b9350506020613b8a868287016139ca565b9250506040613b9b86828701613ad0565b9150509250925092565b60008060008060808587031215613bbf57613bbe614c99565b5b6000613bcd878288016139ca565b9450506020613bde878288016139ca565b9350506040613bef87828801613ad0565b925050606085013567ffffffffffffffff811115613c1057613c0f614c94565b5b613c1c87828801613a74565b91505092959194509250565b60008060408385031215613c3f57613c3e614c99565b5b6000613c4d858286016139ca565b9250506020613c5e85828601613a35565b9150509250929050565b60008060408385031215613c7f57613c7e614c99565b5b6000613c8d858286016139ca565b9250506020613c9e85828601613ad0565b9150509250929050565b60008060208385031215613cbf57613cbe614c99565b5b600083013567ffffffffffffffff811115613cdd57613cdc614c94565b5b613ce9858286016139df565b92509250509250929050565b600060208284031215613d0b57613d0a614c99565b5b6000613d1984828501613a35565b91505092915050565b600060208284031215613d3857613d37614c99565b5b6000613d4684828501613a4a565b91505092915050565b600060208284031215613d6557613d64614c99565b5b6000613d7384828501613a5f565b91505092915050565b600060208284031215613d9257613d91614c99565b5b600082013567ffffffffffffffff811115613db057613daf614c94565b5b613dbc84828501613aa2565b91505092915050565b600060208284031215613ddb57613dda614c99565b5b6000613de984828501613ad0565b91505092915050565b6000613dfe8383614336565b60208301905092915050565b613e13816149d3565b82525050565b6000613e2482614847565b613e2e8185614875565b9350613e3983614822565b8060005b83811015613e6a578151613e518882613df2565b9750613e5c83614868565b925050600181019050613e3d565b5085935050505092915050565b613e80816149e5565b82525050565b6000613e9182614852565b613e9b8185614886565b9350613eab818560208601614a56565b613eb481614c9e565b840191505092915050565b6000613eca8261485d565b613ed481856148a2565b9350613ee4818560208601614a56565b613eed81614c9e565b840191505092915050565b6000613f038261485d565b613f0d81856148b3565b9350613f1d818560208601614a56565b80840191505092915050565b60008154613f3681614a89565b613f4081866148b3565b94506001821660008114613f5b5760018114613f6c57613f9f565b60ff19831686528186019350613f9f565b613f7585614832565b60005b83811015613f9757815481890152600182019150602081019050613f78565b838801955050505b50505092915050565b6000613fb5602b836148a2565b9150613fc082614caf565b604082019050919050565b6000613fd86032836148a2565b9150613fe382614cfe565b604082019050919050565b6000613ffb6026836148a2565b915061400682614d4d565b604082019050919050565b600061401e601c836148a2565b915061402982614d9c565b602082019050919050565b6000614041601c836148a2565b915061404c82614dc5565b602082019050919050565b60006140646024836148a2565b915061406f82614dee565b604082019050919050565b60006140876019836148a2565b915061409282614e3d565b602082019050919050565b60006140aa602c836148a2565b91506140b582614e66565b604082019050919050565b60006140cd6038836148a2565b91506140d882614eb5565b604082019050919050565b60006140f0602a836148a2565b91506140fb82614f04565b604082019050919050565b60006141136029836148a2565b915061411e82614f53565b604082019050919050565b60006141366016836148a2565b915061414182614fa2565b602082019050919050565b60006141596024836148a2565b915061416482614fcb565b604082019050919050565b600061417c6020836148a2565b91506141878261501a565b602082019050919050565b600061419f602c836148a2565b91506141aa82615043565b604082019050919050565b60006141c26020836148a2565b91506141cd82615092565b602082019050919050565b60006141e56016836148a2565b91506141f0826150bb565b602082019050919050565b60006142086029836148a2565b9150614213826150e4565b604082019050919050565b600061422b602f836148a2565b915061423682615133565b604082019050919050565b600061424e6021836148a2565b915061425982615182565b604082019050919050565b6000614271600083614897565b915061427c826151d1565b600082019050919050565b60006142946012836148a2565b915061429f826151d4565b602082019050919050565b60006142b76031836148a2565b91506142c2826151fd565b604082019050919050565b60006142da602c836148a2565b91506142e58261524c565b604082019050919050565b60006142fd6017836148a2565b91506143088261529b565b602082019050919050565b6000614320601b836148a2565b915061432b826152c4565b602082019050919050565b61433f81614a3d565b82525050565b61434e81614a3d565b82525050565b60006143608286613ef8565b915061436c8285613ef8565b91506143788284613f29565b9150819050949350505050565b600061439082614264565b9150819050919050565b60006020820190506143af6000830184613e0a565b92915050565b60006080820190506143ca6000830187613e0a565b6143d76020830186613e0a565b6143e46040830185614345565b81810360608301526143f68184613e86565b905095945050505050565b6000602082019050818103600083015261441b8184613e19565b905092915050565b60006020820190506144386000830184613e77565b92915050565b600060208201905081810360008301526144588184613ebf565b905092915050565b6000602082019050818103600083015261447981613fa8565b9050919050565b6000602082019050818103600083015261449981613fcb565b9050919050565b600060208201905081810360008301526144b981613fee565b9050919050565b600060208201905081810360008301526144d981614011565b9050919050565b600060208201905081810360008301526144f981614034565b9050919050565b6000602082019050818103600083015261451981614057565b9050919050565b600060208201905081810360008301526145398161407a565b9050919050565b600060208201905081810360008301526145598161409d565b9050919050565b60006020820190508181036000830152614579816140c0565b9050919050565b60006020820190508181036000830152614599816140e3565b9050919050565b600060208201905081810360008301526145b981614106565b9050919050565b600060208201905081810360008301526145d981614129565b9050919050565b600060208201905081810360008301526145f98161414c565b9050919050565b600060208201905081810360008301526146198161416f565b9050919050565b6000602082019050818103600083015261463981614192565b9050919050565b60006020820190508181036000830152614659816141b5565b9050919050565b60006020820190508181036000830152614679816141d8565b9050919050565b60006020820190508181036000830152614699816141fb565b9050919050565b600060208201905081810360008301526146b98161421e565b9050919050565b600060208201905081810360008301526146d981614241565b9050919050565b600060208201905081810360008301526146f981614287565b9050919050565b60006020820190508181036000830152614719816142aa565b9050919050565b60006020820190508181036000830152614739816142cd565b9050919050565b60006020820190508181036000830152614759816142f0565b9050919050565b6000602082019050818103600083015261477981614313565b9050919050565b60006020820190506147956000830184614345565b92915050565b60006147a56147b6565b90506147b18282614abb565b919050565b6000604051905090565b600067ffffffffffffffff8211156147db576147da614c51565b5b6147e482614c9e565b9050602081019050919050565b600067ffffffffffffffff82111561480c5761480b614c51565b5b61481582614c9e565b9050602081019050919050565b6000819050602082019050919050565b60008190508160005260206000209050919050565b600081519050919050565b600081519050919050565b600081519050919050565b6000602082019050919050565b600082825260208201905092915050565b600082825260208201905092915050565b600081905092915050565b600082825260208201905092915050565b600081905092915050565b60006148c982614a3d565b91506148d483614a3d565b9250827fffffffffffffffffffffffffffffffffffffffffffffffffffffffffffffffff0382111561490957614908614b66565b5b828201905092915050565b600061491f82614a3d565b915061492a83614a3d565b92508261493a57614939614b95565b5b828204905092915050565b600061495082614a3d565b915061495b83614a3d565b9250817fffffffffffffffffffffffffffffffffffffffffffffffffffffffffffffffff048311821515161561499457614993614b66565b5b828202905092915050565b60006149aa82614a3d565b91506149b583614a3d565b9250828210156149c8576149c7614b66565b5b828203905092915050565b60006149de82614a1d565b9050919050565b60008115159050919050565b60007fffffffff0000000000000000000000000000000000000000000000000000000082169050919050565b600073ffffffffffffffffffffffffffffffffffffffff82169050919050565b6000819050919050565b82818337600083830152505050565b60005b83811015614a74578082015181840152602081019050614a59565b83811115614a83576000848401525b50505050565b60006002820490506001821680614aa157607f821691505b60208210811415614ab557614ab4614bc4565b5b50919050565b614ac482614c9e565b810181811067ffffffffffffffff82111715614ae357614ae2614c51565b5b80604052505050565b6000614af782614a3d565b91507fffffffffffffffffffffffffffffffffffffffffffffffffffffffffffffffff821415614b2a57614b29614b66565b5b600182019050919050565b6000614b4082614a3d565b9150614b4b83614a3d565b925082614b5b57614b5a614b95565b5b828206905092915050565b7f4e487b7100000000000000000000000000000000000000000000000000000000600052601160045260246000fd5b7f4e487b7100000000000000000000000000000000000000000000000000000000600052601260045260246000fd5b7f4e487b7100000000000000000000000000000000000000000000000000000000600052602260045260246000fd5b7f4e487b7100000000000000000000000000000000000000000000000000000000600052603160045260246000fd5b7f4e487b7100000000000000000000000000000000000000000000000000000000600052603260045260246000fd5b7f4e487b7100000000000000000000000000000000000000000000000000000000600052604160045260246000fd5b600080fd5b600080fd5b600080fd5b600080fd5b600080fd5b600080fd5b6000601f19601f8301169050919050565b7f455243373231456e756d657261626c653a206f776e657220696e646578206f7560008201527f74206f6620626f756e6473000000000000000000000000000000000000000000602082015250565b7f4552433732313a207472616e7366657220746f206e6f6e20455243373231526560008201527f63656976657220696d706c656d656e7465720000000000000000000000000000602082015250565b7f4f776e61626c653a206e6577206f776e657220697320746865207a65726f206160008201527f6464726573730000000000000000000000000000000000000000000000000000602082015250565b7f4552433732313a20746f6b656e20616c7265616479206d696e74656400000000600082015250565b7f6d6178204e465420706572206164647265737320657863656564656400000000600082015250565b7f4552433732313a207472616e7366657220746f20746865207a65726f2061646460008201527f7265737300000000000000000000000000000000000000000000000000000000602082015250565b7f4552433732313a20617070726f766520746f2063616c6c657200000000000000600082015250565b7f4552433732313a206f70657261746f7220717565727920666f72206e6f6e657860008201527f697374656e7420746f6b656e0000000000000000000000000000000000000000602082015250565b7f4552433732313a20617070726f76652063616c6c6572206973206e6f74206f7760008201527f6e6572206e6f7220617070726f76656420666f7220616c6c0000000000000000602082015250565b7f4552433732313a2062616c616e636520717565727920666f7220746865207a6560008201527f726f206164647265737300000000000000000000000000000000000000000000602082015250565b7f4552433732313a206f776e657220717565727920666f72206e6f6e657869737460008201527f656e7420746f6b656e0000000000000000000000000000000000000000000000602082015250565b7f6d6178204e4654206c696d697420657863656564656400000000000000000000600082015250565b7f6d6178206d696e7420616d6f756e74207065722073657373696f6e206578636560008201527f6564656400000000000000000000000000000000000000000000000000000000602082015250565b7f4552433732313a206d696e7420746f20746865207a65726f2061646472657373600082015250565b7f4552433732313a20617070726f76656420717565727920666f72206e6f6e657860008201527f697374656e7420746f6b656e0000000000000000000000000000000000000000602082015250565b7f4f776e61626c653a2063616c6c6572206973206e6f7420746865206f776e6572600082015250565b7f74686520636f6e74726163742069732070617573656400000000000000000000600082015250565b7f4552433732313a207472616e73666572206f6620746f6b656e2074686174206960008201527f73206e6f74206f776e0000000000000000000000000000000000000000000000602082015250565b7f4552433732314d657461646174613a2055524920717565727920666f72206e6f60008201527f6e6578697374656e7420746f6b656e0000000000000000000000000000000000602082015250565b7f4552433732313a20617070726f76616c20746f2063757272656e74206f776e6560008201527f7200000000000000000000000000000000000000000000000000000000000000602082015250565b50565b7f696e73756666696369656e742066756e64730000000000000000000000000000600082015250565b7f4552433732313a207472616e736665722063616c6c6572206973206e6f74206f60008201527f776e6572206e6f7220617070726f766564000000000000000000000000000000602082015250565b7f455243373231456e756d657261626c653a20676c6f62616c20696e646578206f60008201527f7574206f6620626f756e64730000000000000000000000000000000000000000602082015250565b7f75736572206973206e6f742077686974656c6973746564000000000000000000600082015250565b7f6e65656420746f206d696e74206174206c656173742031204e46540000000000600082015250565b6152f6816149d3565b811461530157600080fd5b50565b61530d816149e5565b811461531857600080fd5b50565b615324816149f1565b811461532f57600080fd5b50565b61533b81614a3d565b811461534657600080fd5b5056fea26469706673582212208fd97368d58e6f9b065101b845d770e5cb021b4f328362680169b3d0c8d4726164736f6c63430008070033",
  "linkReferences": {},
  "deployedLinkReferences": {}
}